:100000000C9434000C9451000C9451000C94510049
:100010000C9451000C9451000C9451000C9451001C
:100020000C9451000C9451000C9451000C9451000C
:100030000C9451000C9451000C9451000C945100FC
:100040000C9451000C9451000C94CA010C94510072
:100050000C9451000C9451000C9451000C945100DC
:100060000C9451000C94510011241FBECFEFD8E026
:10007000DEBFCDBF11E0A0E0B1E0E6E6F6E002C0F1
:1000800005900D92AC33B107D9F721E0ACE3B1E0B4
:1000900001C01D92A535B207E1F70E943D010C9405
:1000A00031030C94000065B9411114C05A988AE1DB
:1000B0008A95F1F700C05B9A9AE19A95F1F700C032
:1000C0005B9883E893E00197F1F700C0000064308B
:1000D000C8F412C05A9A9AE19A95F1F700C05B9A57
:1000E0008AE18A95F1F700C05B9883E893E0019775
:1000F000F1F700C0000008958FE99FE00197F1F744
:1001000000C00000089540E061E00E94530008959F
:100110000F931F93CF93DF938C01EB0141110E944A
:1001200083006881662341F0219641E0C8010E9466
:10013000530069916111F9CFDF91CF911F910F9118
:100140000895CF93DF93EC0141E066E071E00E94F7
:1001500088002FEF84E39CE0215080409040E1F73D
:1001600000C00000CE010E948300DF91CF9108956E
:10017000CF93DF93EC015A988FE295E70197F1F75F
:1001800000C0000088E385B99AE19A95F1F700C0B4
:100190005B9A8AE18A95F1F700C05B9883E893E067
:1001A0000197F1F700C000008FE097E20197F1F7A7
:1001B00000C000009AE19A95F1F700C05B9A8AE1CD
:1001C0008A95F1F700C05B9883E893E00197F1F717
:1001D00000C000008FE891E00197F1F700C0000037
:1001E0009AE19A95F1F700C05B9A8AE18A95F1F756
:1001F00000C05B9883E893E00197F1F700C000002E
:100200009AE19A95F1F700C05B9A8AE18A95F1F735
:1002100000C05B9883E893E00197F1F700C000000D
:1002200040E068E0CE010E94530040E061E0CE0172
:100230000E94530040E06CE0CE010E94530040E079
:1002400060E8CE010E945300CE010E94A100DF9120
:10025000CF9108958AB18C608AB98FEF84B93B9AA7
:1002600088E98093C10086E28093C2001092C500A5
:1002700083E38093C400789408950E942A01109229
:10028000490180E591E00E94B8008AE491E00E9473
:10029000F001FFCF8A3259F48091490181116CC07D
:1002A0008AE280933C0181E0809347016CC08830F2
:1002B00099F580914901882309F45EC040E060E12E
:1002C00080E591E00E9453008FE19EE40197F1F7F1
:1002D00000C0000041E060E280E591E00E94530030
:1002E00040E060E180E591E00E94530098B188E031
:1002F000892788B980914901823031F48091480181
:1003000081508093480138C08130B1F58091470118
:1003100081508093470130C09FEC980F9830E0F4F3
:1003200090914901292F2D7F59F490914801E92F8F
:10033000F0E0EF5BFE4F80839F5F909348011CC00D
:100340009130D1F4E0914701EF5FE0934701F0E095
:10035000E55CFE4F808310C041E069E271E080E51A
:1003600091E00E9488009FEF29E688E191502040AB
:100370008040E1F700C0000080914701853019F40A
:1003800010924701089580914801863011F410922F
:10039000480108951F920F920FB60F9211242F93C8
:1003A0003F934F935F936F937F938F939F93AF93FD
:1003B000BF93EF93FF938091C6000E944A01FF9183
:1003C000EF91BF91AF919F918F917F916F915F91CD
:1003D0004F913F912F910F900FBE0F901F90189546
:1003E000CF93DF93EC0181E090E09A83898388E0EA
:1003F00090E00E941002FC019C838B8381E3808348
:10040000818382E3828383E3838384E3848385E33C
:10041000858386E3868380E38783DF91CF91089588
:100420000F931F93CF93DF938230910510F482E0F6
:1004300090E0E0915301F091540120E030E0A0E021
:10044000B0E0309719F14081518102811381481742
:100450005907C8F08417950769F4109731F0129680
:100460000C93129713961C9327C00093530110937B
:10047000540122C02115310519F04217530718F411
:100480009A01BD01EF01DF01F801DBCF2115310534
:10049000F9F0281B390B2430310580F48A819B81C7
:1004A0006115710521F0FB019383828304C0909351
:1004B000540180935301FE01329644C0FE01E20FC5
:1004C000F31F8193919322503109398328833AC0D5
:1004D0002091510130915201232B41F420910201CE
:1004E000309103013093520120935101209100017A
:1004F000309101012115310541F42DB73EB74091EE
:10050000040150910501241B350BE0915101F0913C
:100510005201E217F307A0F42E1B3F0B28173907EF
:1005200078F0AC014E5F5F4F2417350748F04E0F4F
:100530005F1F50935201409351018193919302C0E8
:10054000E0E0F0E0CF01DF91CF911F910F9108958E
:10055000CF93DF93009709F481C0FC013297138297
:100560001282A0915301B0915401109781F420811F
:100570003181820F931F2091510130915201281730
:10058000390751F5F0935201E093510167C0ED0135
:1005900020E030E0CE17DF0740F44A815B819E0106
:1005A00041155105F1F0EA01F5CFD383C2834081B3
:1005B0005181840F951FC817D90759F488819981F3
:1005C000840F951F0296918380838A819B819383F8
:1005D00082832115310529F4F0935401E0935301EE
:1005E0003DC0E901FB83EA8349915991C40FD51FAE
:1005F000EC17FD0761F480819181840F951F0296AD
:10060000E90199838883828193819B838A83E0E0D7
:10061000F0E012968D919C911397009719F0FD01CF
:10062000DC01F7CF8D919C9111979D012E5F3F4F7B
:10063000820F931F209151013091520128173907E1
:1006400069F4309729F4109254011092530102C0BA
:1006500013821282B0935201A0935101DF91CF9186
:060660000895F894FFCF9D
:1006660000005501200053697374656D6120696E41
:1006760069636961646F2E005573657249443A2057
:100686000053656E68613A20004361726163746568
:0C0696007220696E76E16C69646F2100CF
:00000001FF
