:100000000C9434000C9451000C9451000C94510049
:100010000C9451000C9451000C9451000C9451001C
:100020000C9451000C9451000C9451000C9451000C
:100030000C9451000C9451000C9451000C945100FC
:100040000C9451000C9451000C94E8010C94510054
:100050000C9451000C9451000C9451000C945100DC
:100060000C9451000C94510011241FBECFEFD8E026
:10007000DEBFCDBF11E0A0E0B1E0E0EEF6E002C0EF
:1000800005900D92A835B107D9F721E0A8E5B1E0B8
:1000900001C01D92AF36B207E1F70E943D010C94FA
:1000A0006E030C94000065B9411114C05A988AE19E
:1000B0008A95F1F700C05B9A9AE19A95F1F700C032
:1000C0005B9883E893E00197F1F700C0000064308B
:1000D000C8F412C05A9A9AE19A95F1F700C05B9A57
:1000E0008AE18A95F1F700C05B9883E893E0019775
:1000F000F1F700C0000008958FE99FE00197F1F744
:1001000000C00000089540E061E00E94530008959F
:100110000F931F93CF93DF938C01EB0141110E944A
:1001200083006881662341F0219641E0C8010E9466
:10013000530069916111F9CFDF91CF911F910F9118
:100140000895CF93DF93EC0141E066E071E00E94F7
:1001500088002FEF84E39CE0215080409040E1F73D
:1001600000C00000CE010E948300DF91CF9108956E
:10017000CF93DF93EC015A988FE295E70197F1F75F
:1001800000C0000088E385B99AE19A95F1F700C0B4
:100190005B9A8AE18A95F1F700C05B9883E893E067
:1001A0000197F1F700C000008FE097E20197F1F7A7
:1001B00000C000009AE19A95F1F700C05B9A8AE1CD
:1001C0008A95F1F700C05B9883E893E00197F1F717
:1001D00000C000008FE891E00197F1F700C0000037
:1001E0009AE19A95F1F700C05B9A8AE18A95F1F756
:1001F00000C05B9883E893E00197F1F700C000002E
:100200009AE19A95F1F700C05B9A8AE18A95F1F735
:1002100000C05B9883E893E00197F1F700C000000D
:1002200040E068E0CE010E94530040E061E0CE0172
:100230000E94530040E06CE0CE010E94530040E079
:1002400060E8CE010E945300CE010E94A100DF9120
:10025000CF9108958AB18C608AB98FEF84B93B9AA7
:1002600088E98093C10086E28093C2001092C500A5
:1002700083E38093C400789408950E942A01109229
:1002800063018AE691E00E94B80084E691E00E9452
:100290000E02FFCF80916201882349F0E8E5F1E08A
:1002A00090E0885A9E4F1192E817F907E1F71092F3
:1002B00062010895CF93DF938D3099F541E069E2B3
:1002C00071E08AE691E00E9488004091620168E551
:1002D00071E084E691E00E942E02882341F041E023
:1002E0006FE271E08AE691E00E94880007C041E079
:1002F00067E371E08AE691E00E9488002FEF84E3D3
:100300009CE0215080409040E1F700C0000041E0B7
:1003100066E471E08AE691E00E9488000E944A014A
:1003200054C0883041F5E0916201EE2309F44DC0DC
:10033000E150E0936201F0E0E85AFE4F108241E0A4
:1003400061E271E08AE691E00E948800809162019A
:100350008823D9F1C0E0D0E040E066E571E08AE6AC
:1003600091E00E94880021968091620190E0C81778
:10037000D90794F32AC0823240F1E0916201F0E0A3
:10038000E85AFE4F808341E061E271E08AE691E045
:100390000E94880080916201893018F48F5F8093F9
:1003A000620180916201882381F0C0E0D0E040E0EA
:1003B00066E571E08AE691E00E94880021968091CE
:1003C000620190E0C817D90794F3DF91CF910895A7
:1003D0001F920F920FB60F9211242F933F934F93BA
:1003E0005F936F937F938F939F93AF93BF93EF939D
:1003F000FF938091C6000E945A01FF91EF91BF9137
:10040000AF919F918F917F916F915F914F913F91AC
:100410002F910F900FBE0F901F901895CF93DF93E1
:10042000EC0181E090E09A83898388E090E00E946B
:100430004D02FC019C838B8381E38083818382E373
:10044000828383E3838384E3848385E3858386E3F4
:10045000868380E38783DF91CF9108954630A9F4A6
:10046000FC0143815481A62FB72FFA013196495FD1
:100470005F4F20E030E09D918191981302C02F5F83
:100480003F4FE417F507B9F702C020E030E081E004
:100490002630310509F080E008950F931F93CF9324
:1004A000DF938230910510F482E090E0E0916D01DD
:1004B000F0916E0120E030E0A0E0B0E0309719F15B
:1004C000408151810281138148175907C8F0841770
:1004D000950769F4109731F012960C9312971396C2
:1004E0001C9327C000936D0110936E0122C021154B
:1004F000310519F04217530718F49A01BD01EF01B5
:10050000DF01F801DBCF21153105F9F0281B390B8C
:100510002430310580F48A819B816115710521F0B9
:10052000FB019383828304C090936E0180936D01DD
:10053000FE01329644C0FE01E20FF31F81939193B6
:1005400022503109398328833AC020916B013091C0
:100550006C01232B41F4209102013091030130936F
:100560006C0120936B012091000130910101211554
:10057000310541F42DB73EB740910401509105017A
:10058000241B350BE0916B01F0916C01E217F3072E
:10059000A0F42E1B3F0B2817390778F0AC014E5FF3
:1005A0005F4F2417350748F04E0F5F1F50936C01C3
:1005B00040936B018193919302C0E0E0F0E0CF01A2
:1005C000DF91CF911F910F910895CF93DF93009703
:1005D00009F481C0FC01329713821282A0916D014F
:1005E000B0916E01109781F420813181820F931FA9
:1005F00020916B0130916C012817390751F5F09368
:100600006C01E0936B0167C0ED0120E030E0CE1794
:10061000DF0740F44A815B819E0141155105F1F0ED
:10062000EA01F5CFD383C28340815181840F951FA6
:10063000C817D90759F488819981840F951F0296AC
:10064000918380838A819B819383828321153105E5
:1006500029F4F0936E01E0936D013DC0E901FB8345
:10066000EA8349915991C40FD51FEC17FD0761F436
:1006700080819181840F951F0296E9019983888377
:10068000828193819B838A83E0E0F0E012968D91D2
:100690009C911397009719F0FD01DC01F7CF8D9124
:1006A0009C9111979D012E5F3F4F820F931F2091C8
:1006B0006B0130916C012817390769F4309729F4E0
:1006C00010926E0110926D0102C013821282B093DB
:1006D0006C01A0936B01DF91CF910895F894FFCF47
:1006E00000006F01200053697374656D6120696EAD
:1006F00069636961646F2E005573657249443A20DD
:100700000053656E68613A2000456E746572004260
:10071000656C657A6161004EE36F20646575206DDC
:10072000617463682100446967697465206120739E
:08073000656E68613A002A00C1
:00000001FF
